{
  "_format": "hh-sol-artifact-1",
  "contractName": "AlertPacketStorage",
  "sourceName": "contracts/Storage.sol",
  "abi": [
    {
      "anonymous": false,
      "inputs": [
        {
          "indexed": true,
          "internalType": "uint256",
          "name": "id",
          "type": "uint256"
        },
        {
          "indexed": false,
          "internalType": "bool",
          "name": "isAlert",
          "type": "bool"
        }
      ],
      "name": "PacketStored",
      "type": "event"
    },
    {
      "inputs": [
        {
          "internalType": "uint256",
          "name": "packetId",
          "type": "uint256"
        }
      ],
      "name": "getAlertPacket",
      "outputs": [
        {
          "internalType": "string[]",
          "name": "",
          "type": "string[]"
        },
        {
          "internalType": "string[]",
          "name": "",
          "type": "string[]"
        }
      ],
      "stateMutability": "view",
      "type": "function"
    },
    {
      "inputs": [],
      "name": "getAllAlertPacketIds",
      "outputs": [
        {
          "internalType": "uint256[]",
          "name": "",
          "type": "uint256[]"
        }
      ],
      "stateMutability": "view",
      "type": "function"
    },
    {
      "inputs": [
        {
          "internalType": "string[]",
          "name": "keys",
          "type": "string[]"
        },
        {
          "internalType": "string[]",
          "name": "values",
          "type": "string[]"
        },
        {
          "internalType": "bool",
          "name": "_isAlert",
          "type": "bool"
        }
      ],
      "name": "storePacket",
      "outputs": [],
      "stateMutability": "nonpayable",
      "type": "function"
    }
  ],
  "bytecode": "0x608060405260018055348015601357600080fd5b50611587806100236000396000f3fe608060405234801561001057600080fd5b50600436106100415760003560e01c806320b8c9cb146100465780633600c9a41461006457806382edb6f614610095575b600080fd5b61004e6100b1565b60405161005b9190610b71565b60405180910390f35b61007e60048036038101906100799190610bd3565b610109565b60405161008c929190610d52565b60405180910390f35b6100af60048036038101906100aa9190610fdc565b61092b565b005b606060028054806020026020016040519081016040528092919081815260200182805480156100ff57602002820191906000526020600020905b8154815260200190600101908083116100eb575b5050505050905090565b60608060008084815260200190815260200160002060010160009054906101000a900460ff1661016e576040517f08c379a0000000000000000000000000000000000000000000000000000000008152600401610165906110c4565b60405180910390fd5b60006012905060008167ffffffffffffffff8111156101905761018f610d8e565b5b6040519080825280602002602001820160405280156101c357816020015b60608152602001906001900390816101ae5790505b50905060008267ffffffffffffffff8111156101e2576101e1610d8e565b5b60405190808252806020026020018201604052801561021557816020015b60608152602001906001900390816102005790505b5090506040518060400160405280600d81526020017f466c6f77204475726174696f6e0000000000000000000000000000000000000081525082600081518110610262576102616110e4565b5b60200260200101819052506040518060400160405280600c81526020017f546f742046776420506b74730000000000000000000000000000000000000000815250826001815181106102b7576102b66110e4565b5b60200260200101819052506040518060400160405280600c81526020017f546f742042776420506b747300000000000000000000000000000000000000008152508260028151811061030c5761030b6110e4565b5b60200260200101819052506040518060400160405280600f81526020017f46776420506b74204c656e204d6178000000000000000000000000000000000081525082600381518110610361576103606110e4565b5b60200260200101819052506040518060400160405280600f81526020017f46776420506b74204c656e204d696e0000000000000000000000000000000000815250826004815181106103b6576103b56110e4565b5b60200260200101819052506040518060400160405280600f81526020017f46776420506b74204c656e2053746400000000000000000000000000000000008152508260058151811061040b5761040a6110e4565b5b60200260200101819052506040518060400160405280600f81526020017f42776420506b74204c656e204d61780000000000000000000000000000000000815250826006815181106104605761045f6110e4565b5b60200260200101819052506040518060400160405280600f81526020017f42776420506b74204c656e204d696e0000000000000000000000000000000000815250826007815181106104b5576104b46110e4565b5b60200260200101819052506040518060400160405280600f81526020017f42776420506b74204c656e2053746400000000000000000000000000000000008152508260088151811061050a576105096110e4565b5b60200260200101819052506040518060400160405280600b81526020017f46776420494154205374640000000000000000000000000000000000000000008152508260098151811061055f5761055e6110e4565b5b60200260200101819052506040518060400160405280600b81526020017f46776420494154204d617800000000000000000000000000000000000000000081525082600a815181106105b4576105b36110e4565b5b60200260200101819052506040518060400160405280600b81526020017f46776420494154204d696e00000000000000000000000000000000000000000081525082600b81518110610609576106086110e4565b5b60200260200101819052506040518060400160405280600b81526020017f427764204941542053746400000000000000000000000000000000000000000081525082600c8151811061065e5761065d6110e4565b5b60200260200101819052506040518060400160405280600b81526020017f42776420494154204d617800000000000000000000000000000000000000000081525082600d815181106106b3576106b26110e4565b5b60200260200101819052506040518060400160405280600b81526020017f42776420494154204d696e00000000000000000000000000000000000000000081525082600e81518110610708576107076110e4565b5b60200260200101819052506040518060400160405280600c81526020017f50534820466c616720436e74000000000000000000000000000000000000000081525082600f8151811061075d5761075c6110e4565b5b60200260200101819052506040518060400160405280600c81526020017f55524720466c616720436e740000000000000000000000000000000000000000815250826010815181106107b2576107b16110e4565b5b60200260200101819052506040518060400160405280600781526020017f6973416c6572740000000000000000000000000000000000000000000000000081525082601181518110610807576108066110e4565b5b602002602001018190525060005b8381101561091c57600080888152602001908152602001600020600001838281518110610845576108446110e4565b5b602002602001015160405161085a919061114f565b9081526020016040518091039020805461087390611195565b80601f016020809104026020016040519081016040528092919081815260200182805461089f90611195565b80156108ec5780601f106108c1576101008083540402835291602001916108ec565b820191906000526020600020905b8154815290600101906020018083116108cf57829003601f168201915b5050505050828281518110610904576109036110e4565b5b60200260200101819052508080600101915050610815565b50818194509450505050915091565b815183511461096f576040517f08c379a000000000000000000000000000000000000000000000000000000000815260040161096690611212565b60405180910390fd5b60008060006001548152602001908152602001600020905060005b8451811015610a02578381815181106109a6576109a56110e4565b5b6020026020010151826000018683815181106109c5576109c46110e4565b5b60200260200101516040516109da919061114f565b908152602001604051809103902090816109f491906113de565b50808060010191505061098a565b50818160010160006101000a81548160ff0219169083151502179055508115610a5157600260015490806001815401808255809150506001900390600052602060002001600090919091909150555b6001547fa32b2379e5bcb558f36ee4f06c8f7081bb8a62d0816cb272701753df361642b583604051610a8391906114bf565b60405180910390a260016000815480929190610a9e90611509565b919050555050505050565b600081519050919050565b600082825260208201905092915050565b6000819050602082019050919050565b6000819050919050565b610ae881610ad5565b82525050565b6000610afa8383610adf565b60208301905092915050565b6000602082019050919050565b6000610b1e82610aa9565b610b288185610ab4565b9350610b3383610ac5565b8060005b83811015610b64578151610b4b8882610aee565b9750610b5683610b06565b925050600181019050610b37565b5085935050505092915050565b60006020820190508181036000830152610b8b8184610b13565b905092915050565b6000604051905090565b600080fd5b600080fd5b610bb081610ad5565b8114610bbb57600080fd5b50565b600081359050610bcd81610ba7565b92915050565b600060208284031215610be957610be8610b9d565b5b6000610bf784828501610bbe565b91505092915050565b600081519050919050565b600082825260208201905092915050565b6000819050602082019050919050565b600081519050919050565b600082825260208201905092915050565b60005b83811015610c66578082015181840152602081019050610c4b565b60008484015250505050565b6000601f19601f8301169050919050565b6000610c8e82610c2c565b610c988185610c37565b9350610ca8818560208601610c48565b610cb181610c72565b840191505092915050565b6000610cc88383610c83565b905092915050565b6000602082019050919050565b6000610ce882610c00565b610cf28185610c0b565b935083602082028501610d0485610c1c565b8060005b85811015610d405784840389528151610d218582610cbc565b9450610d2c83610cd0565b925060208a01995050600181019050610d08565b50829750879550505050505092915050565b60006040820190508181036000830152610d6c8185610cdd565b90508181036020830152610d808184610cdd565b90509392505050565b600080fd5b7f4e487b7100000000000000000000000000000000000000000000000000000000600052604160045260246000fd5b610dc682610c72565b810181811067ffffffffffffffff82111715610de557610de4610d8e565b5b80604052505050565b6000610df8610b93565b9050610e048282610dbd565b919050565b600067ffffffffffffffff821115610e2457610e23610d8e565b5b602082029050602081019050919050565b600080fd5b600080fd5b600067ffffffffffffffff821115610e5a57610e59610d8e565b5b610e6382610c72565b9050602081019050919050565b82818337600083830152505050565b6000610e92610e8d84610e3f565b610dee565b905082815260208101848484011115610eae57610ead610e3a565b5b610eb9848285610e70565b509392505050565b600082601f830112610ed657610ed5610d89565b5b8135610ee6848260208601610e7f565b91505092915050565b6000610f02610efd84610e09565b610dee565b90508083825260208201905060208402830185811115610f2557610f24610e35565b5b835b81811015610f6c57803567ffffffffffffffff811115610f4a57610f49610d89565b5b808601610f578982610ec1565b85526020850194505050602081019050610f27565b5050509392505050565b600082601f830112610f8b57610f8a610d89565b5b8135610f9b848260208601610eef565b91505092915050565b60008115159050919050565b610fb981610fa4565b8114610fc457600080fd5b50565b600081359050610fd681610fb0565b92915050565b600080600060608486031215610ff557610ff4610b9d565b5b600084013567ffffffffffffffff81111561101357611012610ba2565b5b61101f86828701610f76565b935050602084013567ffffffffffffffff8111156110405761103f610ba2565b5b61104c86828701610f76565b925050604061105d86828701610fc7565b9150509250925092565b600082825260208201905092915050565b7f5061636b6574206973206e6f7420616e20616c65727400000000000000000000600082015250565b60006110ae601683611067565b91506110b982611078565b602082019050919050565b600060208201905081810360008301526110dd816110a1565b9050919050565b7f4e487b7100000000000000000000000000000000000000000000000000000000600052603260045260246000fd5b600081905092915050565b600061112982610c2c565b6111338185611113565b9350611143818560208601610c48565b80840191505092915050565b600061115b828461111e565b915081905092915050565b7f4e487b7100000000000000000000000000000000000000000000000000000000600052602260045260246000fd5b600060028204905060018216806111ad57607f821691505b6020821081036111c0576111bf611166565b5b50919050565b7f4b65797320616e642076616c756573206c656e677468206d69736d6174636800600082015250565b60006111fc601f83611067565b9150611207826111c6565b602082019050919050565b6000602082019050818103600083015261122b816111ef565b9050919050565b60008190508160005260206000209050919050565b60006020601f8301049050919050565b600082821b905092915050565b6000600883026112947fffffffffffffffffffffffffffffffffffffffffffffffffffffffffffffffff82611257565b61129e8683611257565b95508019841693508086168417925050509392505050565b6000819050919050565b60006112db6112d66112d184610ad5565b6112b6565b610ad5565b9050919050565b6000819050919050565b6112f5836112c0565b611309611301826112e2565b848454611264565b825550505050565b600090565b61131e611311565b6113298184846112ec565b505050565b5b8181101561134d57611342600082611316565b60018101905061132f565b5050565b601f8211156113925761136381611232565b61136c84611247565b8101602085101561137b578190505b61138f61138785611247565b83018261132e565b50505b505050565b600082821c905092915050565b60006113b560001984600802611397565b1980831691505092915050565b60006113ce83836113a4565b9150826002028217905092915050565b6113e782610c2c565b67ffffffffffffffff811115611400576113ff610d8e565b5b61140a8254611195565b611415828285611351565b600060209050601f8311600181146114485760008415611436578287015190505b61144085826113c2565b8655506114a8565b601f19841661145686611232565b60005b8281101561147e57848901518255600182019150602085019450602081019050611459565b8683101561149b5784890151611497601f8916826113a4565b8355505b6001600288020188555050505b505050505050565b6114b981610fa4565b82525050565b60006020820190506114d460008301846114b0565b92915050565b7f4e487b7100000000000000000000000000000000000000000000000000000000600052601160045260246000fd5b600061151482610ad5565b91507fffffffffffffffffffffffffffffffffffffffffffffffffffffffffffffffff8203611546576115456114da565b5b60018201905091905056fea26469706673582212207b202d9ebd946a8aefdd44fee85c740d45c35ca93af2feeffe72f68c52306f4d64736f6c634300081c0033",
  "linkReferences": {},
  "deployedLinkReferences": {}
}